:0410000051EF08F0B4
:10100800FACF12F0FBCF13F0E9CF14F053EF08F04A
:10101800D8CF01F0E8CF02F0E0CF03F0FACF04F028
:10102800FBCF05F0E9CF06F0EACF07F0E1CF08F0F3
:10103800E2CF09F0D9CF0AF0DACF0BF0F3CF0CF0FA
:10104800F4CF0DF0F6CF0EF0F7CF0FF0F8CF10F089
:10105800F5CF11F011C0F5FF10C0F8FF0FC0F7FF72
:101068000EC0F6FF0DC0F4FF0CC0F3FF0BC0DAFF93
:101078000AC0D9FF09C0E2FF08C0E1FF07C0EAFFC4
:1010880006C0E9FF05C0FBFF04C0FAFF03C0E0FF8C
:1010980002C0E8FF01C0D8FF1000D9EF08F0EACF7E
:1010A80015F0E1CF16F0E2CF17F0D9CF18F0DACF6C
:1010B80019F0F3CF1AF0F4CF1BF0F6CF1CF0F7CFEE
:1010C8001DF0F8CF1EF0F5CF1FF01FC0F5FF1EC0B2
:1010D800F8FF1DC0F7FF1CC0F6FF1BC0F4FF1AC0C5
:1010E800F3FF19C0DAFF18C0D9FF17C0E2FF16C016
:1010F800E1FF15C0EAFF14C0E9FF13C0FBFF12C0EF
:10110800FAFF1100216E000E226E2150000E246E8F
:10111800000E236ED0EC08F0AFEC08F0245023103A
:10112800D8A4FCD7000E246EC80E236E83B883AAF9
:1011380008D022A203D0838C839EF0D7839C838E11
:10114800EDD7839C839E83B8E9D722A002D0838CF5
:10115800E5D7839CE3D7000E896E9268000E8A6EED
:101168009268000E8B6E9468000E8C6E3F0E956E22
:10117800000E8D6E9668CA50FC0B0209CA6ECA50E2
:10118800870B2009CA6E960ECB6E9F929D82D08ED9
:10119800F28CF28ECA8412009B8C4E0E206EEB0EDF
:1011A800E82EFED7202EFCD71200000186EF08F0AB
:020000040001F9
:08FFF800BAF73DFF63FA81F93D
:00000001FF
