:0410000061EF08F0A4
:10100800FACF12F0FBCF13F0E9CF14F096EF08F007
:10101800D8CF01F0E8CF02F0E0CF03F0FACF04F028
:10102800FBCF05F0E9CF06F0EACF07F0E1CF08F0F3
:10103800E2CF09F0D9CF0AF0DACF0BF0F3CF0CF0FA
:10104800F4CF0DF0F6CF0EF0F7CF0FF0F8CF10F089
:10105800F5CF11F09EA201D001D00CD0245023105E
:10106800D8B401D001D004D02306D8A0240600D0DB
:101078009E9200D011C0F5FF10C0F8FF0FC0F7FF17
:101088000EC0F6FF0DC0F4FF0CC0F3FF0BC0DAFF73
:101098000AC0D9FF09C0E2FF08C0E1FF07C0EAFFA4
:1010A80006C0E9FF05C0FBFF04C0FAFF03C0E0FF6C
:1010B80002C0E8FF01C0D8FF1000FFEF08F0216E62
:1010C800000E226E2150F6EC08F0C9EC08F024500E
:1010D8002310D8A4FCD7000E246EC80E236E83B844
:1010E80083AA06D022A202D0838C11D0839C0DD073
:1010F800839C839E83B805D022A002D0838C01D024
:10110800839C83BA05D022A002D0838E01D0839E0F
:10111800222A2250040AD8A4DAD7216E000E226EA1
:101128002150D5D7EACF15F0E1CF16F0E2CF17F06E
:10113800D9CF18F0DACF19F0F3CF1AF0F4CF1BF0AB
:10114800F6CF1CF0F7CF1DF0F8CF1EF0F5CF1FF04B
:101158001FC0F5FF1EC0F8FF1DC0F7FF1CC0F6FF3B
:101168001BC0F4FF1AC0F3FF19C0DAFF18C0D9FF7B
:1011780017C0E2FF16C0E1FF15C0EAFF14C0E9FF7F
:1011880013C0FBFF12C0FAFF1100000E896E9268AF
:10119800000E8A6E9268000E8B6E9468000E8C6E3C
:1011A8003F0E956E000E8D6E9668ECEC08F0CA50F6
:1011B800FC0B0209CA6ECA50870B2009CA6E960E2C
:1011C800CB6E9F929D82D08EF28CF28ECA841200D2
:1011D800000ECA6E000ECC6E000ECB6E9D929F92D2
:1011E8009E9212009B8C4E0E206EEB0EE82EFED7C0
:1011F800202EFCD71200246A236A000163EF08F04E
:020000040001F9
:08FFF800BAF73DFF63FA81F93D
:00000001FF
